{
  "abi": [
    {
      "anonymous": false,
      "inputs": [
        {
          "indexed": true,
          "internalType": "uint256",
          "name": "from_address",
          "type": "uint256"
        },
        {
          "indexed": true,
          "internalType": "address",
          "name": "to_address",
          "type": "address"
        },
        {
          "indexed": false,
          "internalType": "uint256[]",
          "name": "payload",
          "type": "uint256[]"
        }
      ],
      "name": "ConsumedMessageToL1",
      "type": "event"
    },
    {
      "anonymous": false,
      "inputs": [
        {
          "indexed": true,
          "internalType": "address",
          "name": "from_address",
          "type": "address"
        },
        {
          "indexed": true,
          "internalType": "uint256",
          "name": "to_address",
          "type": "uint256"
        },
        {
          "indexed": true,
          "internalType": "uint256",
          "name": "selector",
          "type": "uint256"
        },
        {
          "indexed": false,
          "internalType": "uint256[]",
          "name": "payload",
          "type": "uint256[]"
        }
      ],
      "name": "ConsumedMessageToL2",
      "type": "event"
    },
    {
      "anonymous": false,
      "inputs": [
        {
          "indexed": true,
          "internalType": "uint256",
          "name": "from_address",
          "type": "uint256"
        },
        {
          "indexed": true,
          "internalType": "address",
          "name": "to_address",
          "type": "address"
        },
        {
          "indexed": false,
          "internalType": "uint256[]",
          "name": "payload",
          "type": "uint256[]"
        }
      ],
      "name": "LogMessageToL1",
      "type": "event"
    },
    {
      "anonymous": false,
      "inputs": [
        {
          "indexed": true,
          "internalType": "address",
          "name": "from_address",
          "type": "address"
        },
        {
          "indexed": true,
          "internalType": "uint256",
          "name": "to_address",
          "type": "uint256"
        },
        {
          "indexed": true,
          "internalType": "uint256",
          "name": "selector",
          "type": "uint256"
        },
        {
          "indexed": false,
          "internalType": "uint256[]",
          "name": "payload",
          "type": "uint256[]"
        }
      ],
      "name": "LogMessageToL2",
      "type": "event"
    },
    {
      "inputs": [
        {
          "internalType": "uint256",
          "name": "from_address",
          "type": "uint256"
        },
        {
          "internalType": "uint256[]",
          "name": "payload",
          "type": "uint256[]"
        }
      ],
      "name": "consumeMessageFromL2",
      "outputs": [
        {
          "internalType": "bytes32",
          "name": "",
          "type": "bytes32"
        }
      ],
      "stateMutability": "nonpayable",
      "type": "function"
    },
    {
      "inputs": [
        {
          "internalType": "bytes32",
          "name": "msgHash",
          "type": "bytes32"
        }
      ],
      "name": "l1ToL2Messages",
      "outputs": [
        {
          "internalType": "uint256",
          "name": "",
          "type": "uint256"
        }
      ],
      "stateMutability": "view",
      "type": "function"
    },
    {
      "inputs": [
        {
          "internalType": "bytes32",
          "name": "msgHash",
          "type": "bytes32"
        }
      ],
      "name": "l2ToL1Messages",
      "outputs": [
        {
          "internalType": "uint256",
          "name": "",
          "type": "uint256"
        }
      ],
      "stateMutability": "view",
      "type": "function"
    },
    {
      "inputs": [
        {
          "internalType": "uint256",
          "name": "to_address",
          "type": "uint256"
        },
        {
          "internalType": "uint256",
          "name": "selector",
          "type": "uint256"
        },
        {
          "internalType": "uint256[]",
          "name": "payload",
          "type": "uint256[]"
        }
      ],
      "name": "sendMessageToL2",
      "outputs": [
        {
          "internalType": "bytes32",
          "name": "",
          "type": "bytes32"
        }
      ],
      "stateMutability": "nonpayable",
      "type": "function"
    }
  ],
  "bytecode": "608060405234801561001057600080fd5b50610550806100206000396000f3fe608060405234801561001057600080fd5b506004361061004c5760003560e01c80632c9dd5c0146100515780633e3aa6c5146100da57806377c7d7a914610156578063a46efaf314610173575b600080fd5b6100c86004803603604081101561006757600080fd5b8135919081019060408101602082013564010000000081111561008957600080fd5b82018360208201111561009b57600080fd5b803590602001918460208302840111640100000000831117156100bd57600080fd5b509092509050610190565b60408051918252519081900360200190f35b6100c8600480360360608110156100f057600080fd5b81359160208101359181019060608101604082013564010000000081111561011757600080fd5b82018360208201111561012957600080fd5b8035906020019184602083028401116401000000008311171561014b57600080fd5b5090925090506102ef565b6100c86004803603602081101561016c57600080fd5b50356103f0565b6100c86004803603602081101561018957600080fd5b503561040b565b60008084336001600160a01b031685859050868660405160200180868152602001858152602001848152602001838360200280828437808301925050509550505050505060405160208183030381529060405280519060200120905060006101f6610411565b6000838152602091909152604090205411610258576040805162461bcd60e51b815260206004820152601a60248201527f494e56414c49445f4d4553534147455f544f5f434f4e53554d45000000000000604482015290519081900360640190fd5b336001600160a01b0316857f7a06c571aa77f34d9706c51e5d8122b5595aebeaa34233bfe866f22befb973b1868660405180806020018281038252848482818152602001925060200280828437600083820152604051601f909101601f19169092018290039550909350505050a360016102d0610411565b6000838152602091909152604090208054919091039055949350505050565b60008385336001600160a01b03167f474d2456b41fc1146ae05ba36e794e448efd2f172a9128ca1c8c6dbdb22b62f7868660405180806020018281038252848482818152602001925060200280828437600083820152604051601f909101601f19169092018290039550909350505050a46000336001600160a01b031686858590506001018787876040516020018087815260200186815260200185815260200184815260200183836020028082843780830192505050965050505050505060405160208183030381529060405280519060200120905060016103d0610439565b600083815260209190915260409020805490910190559050949350505050565b60006103fa610439565b600092835260205250604090205490565b60006103fa5b60006104346040518060600160405280602381526020016104f860239139610458565b905090565b60006104346040518060600160405280602381526020016104d5602391395b600080826040516020018082805190602001908083835b6020831061048e5780518252601f19909201916020918201910161046f565b6001836020036101000a0380198251168184511680821785525050505050509050019150506040516020818303038152906040528051906020012090508091505091905056fe535441524b4e45545f312e305f4d5347494e475f4c31544f4c325f4d41505050494e47535441524b4e45545f312e305f4d5347494e475f4c32544f4c315f4d41505050494e47a26469706673582212202f1939c4fb2205d451cdf55dedd0d692abbbadb3f765bb5962c7e04f5297e2b464736f6c634300060c0033",
  "bytecodeSha1": "35a273b05fa7f64547bfb941071f659d7a018a85",
  "compiler": {
    "evm_version": "istanbul",
    "optimizer": {
      "enabled": true,
      "runs": 200
    },
    "version": "0.6.12+commit.27d51765"
  },
  "contractName": "StarknetMessaging",
  "language": "Solidity",
  "natspec": {
    "kind": "dev",
    "methods": {
      "consumeMessageFromL2(uint256,uint256[])": {
        "notice": "Consumes a message that was sent from an L2 contract. Returns the hash of the message."
      },
      "sendMessageToL2(uint256,uint256,uint256[])": {
        "notice": "Sends a message to an L2 contract."
      }
    },
    "notice": "Implements sending messages to L2 by adding them to a pipe and consuming messages from L2 by removing them from a different pipe. A deriving contract can handle the former pipe and add items to the latter pipe while interacting with L2.",
    "version": 1
  },
  "opcodes": "PUSH1 0x80 PUSH1 0x40 MSTORE CALLVALUE DUP1 ISZERO PUSH2 0x10 JUMPI PUSH1 0x0 DUP1 REVERT JUMPDEST POP PUSH1 0x4 CALLDATASIZE LT PUSH2 0x4C JUMPI PUSH1 0x0 CALLDATALOAD PUSH1 0xE0 SHR DUP1 PUSH4 0x2C9DD5C0 EQ PUSH2 0x51 JUMPI DUP1 PUSH4 0x3E3AA6C5 EQ PUSH2 0xDA JUMPI DUP1 PUSH4 0x77C7D7A9 EQ PUSH2 0x156 JUMPI DUP1 PUSH4 0xA46EFAF3 EQ PUSH2 0x173 JUMPI JUMPDEST PUSH1 0x0 DUP1 REVERT JUMPDEST PUSH2 0xC8 PUSH1 0x4 DUP1 CALLDATASIZE SUB PUSH1 0x40 DUP2 LT ISZERO PUSH2 0x67 JUMPI PUSH1 0x0 DUP1 REVERT JUMPDEST DUP2 CALLDATALOAD SWAP2 SWAP1 DUP2 ADD SWAP1 PUSH1 0x40 DUP2 ADD PUSH1 0x20 DUP3 ADD CALLDATALOAD PUSH5 0x100000000 DUP2 GT ISZERO PUSH2 0x89 JUMPI PUSH1 0x0 DUP1 REVERT JUMPDEST DUP3 ADD DUP4 PUSH1 0x20 DUP3 ADD GT ISZERO PUSH2 0x9B JUMPI PUSH1 0x0 DUP1 REVERT JUMPDEST DUP1 CALLDATALOAD SWAP1 PUSH1 0x20 ADD SWAP2 DUP5 PUSH1 0x20 DUP4 MUL DUP5 ADD GT PUSH5 0x100000000 DUP4 GT OR ISZERO PUSH2 0xBD JUMPI PUSH1 0x0 DUP1 REVERT JUMPDEST POP SWAP1 SWAP3 POP SWAP1 POP PUSH2 0x190 JUMP JUMPDEST PUSH1 0x40 DUP1 MLOAD SWAP2 DUP3 MSTORE MLOAD SWAP1 DUP2 SWAP1 SUB PUSH1 0x20 ADD SWAP1 RETURN JUMPDEST PUSH2 0xC8 PUSH1 0x4 DUP1 CALLDATASIZE SUB PUSH1 0x60 DUP2 LT ISZERO PUSH2 0xF0 JUMPI PUSH1 0x0 DUP1 REVERT JUMPDEST DUP2 CALLDATALOAD SWAP2 PUSH1 0x20 DUP2 ADD CALLDATALOAD SWAP2 DUP2 ADD SWAP1 PUSH1 0x60 DUP2 ADD PUSH1 0x40 DUP3 ADD CALLDATALOAD PUSH5 0x100000000 DUP2 GT ISZERO PUSH2 0x117 JUMPI PUSH1 0x0 DUP1 REVERT JUMPDEST DUP3 ADD DUP4 PUSH1 0x20 DUP3 ADD GT ISZERO PUSH2 0x129 JUMPI PUSH1 0x0 DUP1 REVERT JUMPDEST DUP1 CALLDATALOAD SWAP1 PUSH1 0x20 ADD SWAP2 DUP5 PUSH1 0x20 DUP4 MUL DUP5 ADD GT PUSH5 0x100000000 DUP4 GT OR ISZERO PUSH2 0x14B JUMPI PUSH1 0x0 DUP1 REVERT JUMPDEST POP SWAP1 SWAP3 POP SWAP1 POP PUSH2 0x2EF JUMP JUMPDEST PUSH2 0xC8 PUSH1 0x4 DUP1 CALLDATASIZE SUB PUSH1 0x20 DUP2 LT ISZERO PUSH2 0x16C JUMPI PUSH1 0x0 DUP1 REVERT JUMPDEST POP CALLDATALOAD PUSH2 0x3F0 JUMP JUMPDEST PUSH2 0xC8 PUSH1 0x4 DUP1 CALLDATASIZE SUB PUSH1 0x20 DUP2 LT ISZERO PUSH2 0x189 JUMPI PUSH1 0x0 DUP1 REVERT JUMPDEST POP CALLDATALOAD PUSH2 0x40B JUMP JUMPDEST PUSH1 0x0 DUP1 DUP5 CALLER PUSH1 0x1 PUSH1 0x1 PUSH1 0xA0 SHL SUB AND DUP6 DUP6 SWAP1 POP DUP7 DUP7 PUSH1 0x40 MLOAD PUSH1 0x20 ADD DUP1 DUP7 DUP2 MSTORE PUSH1 0x20 ADD DUP6 DUP2 MSTORE PUSH1 0x20 ADD DUP5 DUP2 MSTORE PUSH1 0x20 ADD DUP4 DUP4 PUSH1 0x20 MUL DUP1 DUP3 DUP5 CALLDATACOPY DUP1 DUP4 ADD SWAP3 POP POP POP SWAP6 POP POP POP POP POP POP PUSH1 0x40 MLOAD PUSH1 0x20 DUP2 DUP4 SUB SUB DUP2 MSTORE SWAP1 PUSH1 0x40 MSTORE DUP1 MLOAD SWAP1 PUSH1 0x20 ADD KECCAK256 SWAP1 POP PUSH1 0x0 PUSH2 0x1F6 PUSH2 0x411 JUMP JUMPDEST PUSH1 0x0 DUP4 DUP2 MSTORE PUSH1 0x20 SWAP2 SWAP1 SWAP2 MSTORE PUSH1 0x40 SWAP1 KECCAK256 SLOAD GT PUSH2 0x258 JUMPI PUSH1 0x40 DUP1 MLOAD PUSH3 0x461BCD PUSH1 0xE5 SHL DUP2 MSTORE PUSH1 0x20 PUSH1 0x4 DUP3 ADD MSTORE PUSH1 0x1A PUSH1 0x24 DUP3 ADD MSTORE PUSH32 0x494E56414C49445F4D4553534147455F544F5F434F4E53554D45000000000000 PUSH1 0x44 DUP3 ADD MSTORE SWAP1 MLOAD SWAP1 DUP2 SWAP1 SUB PUSH1 0x64 ADD SWAP1 REVERT JUMPDEST CALLER PUSH1 0x1 PUSH1 0x1 PUSH1 0xA0 SHL SUB AND DUP6 PUSH32 0x7A06C571AA77F34D9706C51E5D8122B5595AEBEAA34233BFE866F22BEFB973B1 DUP7 DUP7 PUSH1 0x40 MLOAD DUP1 DUP1 PUSH1 0x20 ADD DUP3 DUP2 SUB DUP3 MSTORE DUP5 DUP5 DUP3 DUP2 DUP2 MSTORE PUSH1 0x20 ADD SWAP3 POP PUSH1 0x20 MUL DUP1 DUP3 DUP5 CALLDATACOPY PUSH1 0x0 DUP4 DUP3 ADD MSTORE PUSH1 0x40 MLOAD PUSH1 0x1F SWAP1 SWAP2 ADD PUSH1 0x1F NOT AND SWAP1 SWAP3 ADD DUP3 SWAP1 SUB SWAP6 POP SWAP1 SWAP4 POP POP POP POP LOG3 PUSH1 0x1 PUSH2 0x2D0 PUSH2 0x411 JUMP JUMPDEST PUSH1 0x0 DUP4 DUP2 MSTORE PUSH1 0x20 SWAP2 SWAP1 SWAP2 MSTORE PUSH1 0x40 SWAP1 KECCAK256 DUP1 SLOAD SWAP2 SWAP1 SWAP2 SUB SWAP1 SSTORE SWAP5 SWAP4 POP POP POP POP JUMP JUMPDEST PUSH1 0x0 DUP4 DUP6 CALLER PUSH1 0x1 PUSH1 0x1 PUSH1 0xA0 SHL SUB AND PUSH32 0x474D2456B41FC1146AE05BA36E794E448EFD2F172A9128CA1C8C6DBDB22B62F7 DUP7 DUP7 PUSH1 0x40 MLOAD DUP1 DUP1 PUSH1 0x20 ADD DUP3 DUP2 SUB DUP3 MSTORE DUP5 DUP5 DUP3 DUP2 DUP2 MSTORE PUSH1 0x20 ADD SWAP3 POP PUSH1 0x20 MUL DUP1 DUP3 DUP5 CALLDATACOPY PUSH1 0x0 DUP4 DUP3 ADD MSTORE PUSH1 0x40 MLOAD PUSH1 0x1F SWAP1 SWAP2 ADD PUSH1 0x1F NOT AND SWAP1 SWAP3 ADD DUP3 SWAP1 SUB SWAP6 POP SWAP1 SWAP4 POP POP POP POP LOG4 PUSH1 0x0 CALLER PUSH1 0x1 PUSH1 0x1 PUSH1 0xA0 SHL SUB AND DUP7 DUP6 DUP6 SWAP1 POP PUSH1 0x1 ADD DUP8 DUP8 DUP8 PUSH1 0x40 MLOAD PUSH1 0x20 ADD DUP1 DUP8 DUP2 MSTORE PUSH1 0x20 ADD DUP7 DUP2 MSTORE PUSH1 0x20 ADD DUP6 DUP2 MSTORE PUSH1 0x20 ADD DUP5 DUP2 MSTORE PUSH1 0x20 ADD DUP4 DUP4 PUSH1 0x20 MUL DUP1 DUP3 DUP5 CALLDATACOPY DUP1 DUP4 ADD SWAP3 POP POP POP SWAP7 POP POP POP POP POP POP POP PUSH1 0x40 MLOAD PUSH1 0x20 DUP2 DUP4 SUB SUB DUP2 MSTORE SWAP1 PUSH1 0x40 MSTORE DUP1 MLOAD SWAP1 PUSH1 0x20 ADD KECCAK256 SWAP1 POP PUSH1 0x1 PUSH2 0x3D0 PUSH2 0x439 JUMP JUMPDEST PUSH1 0x0 DUP4 DUP2 MSTORE PUSH1 0x20 SWAP2 SWAP1 SWAP2 MSTORE PUSH1 0x40 SWAP1 KECCAK256 DUP1 SLOAD SWAP1 SWAP2 ADD SWAP1 SSTORE SWAP1 POP SWAP5 SWAP4 POP POP POP POP JUMP JUMPDEST PUSH1 0x0 PUSH2 0x3FA PUSH2 0x439 JUMP JUMPDEST PUSH1 0x0 SWAP3 DUP4 MSTORE PUSH1 0x20 MSTORE POP PUSH1 0x40 SWAP1 KECCAK256 SLOAD SWAP1 JUMP JUMPDEST PUSH1 0x0 PUSH2 0x3FA JUMPDEST PUSH1 0x0 PUSH2 0x434 PUSH1 0x40 MLOAD DUP1 PUSH1 0x60 ADD PUSH1 0x40 MSTORE DUP1 PUSH1 0x23 DUP2 MSTORE PUSH1 0x20 ADD PUSH2 0x4F8 PUSH1 0x23 SWAP2 CODECOPY PUSH2 0x458 JUMP JUMPDEST SWAP1 POP SWAP1 JUMP JUMPDEST PUSH1 0x0 PUSH2 0x434 PUSH1 0x40 MLOAD DUP1 PUSH1 0x60 ADD PUSH1 0x40 MSTORE DUP1 PUSH1 0x23 DUP2 MSTORE PUSH1 0x20 ADD PUSH2 0x4D5 PUSH1 0x23 SWAP2 CODECOPY JUMPDEST PUSH1 0x0 DUP1 DUP3 PUSH1 0x40 MLOAD PUSH1 0x20 ADD DUP1 DUP3 DUP1 MLOAD SWAP1 PUSH1 0x20 ADD SWAP1 DUP1 DUP4 DUP4 JUMPDEST PUSH1 0x20 DUP4 LT PUSH2 0x48E JUMPI DUP1 MLOAD DUP3 MSTORE PUSH1 0x1F NOT SWAP1 SWAP3 ADD SWAP2 PUSH1 0x20 SWAP2 DUP3 ADD SWAP2 ADD PUSH2 0x46F JUMP JUMPDEST PUSH1 0x1 DUP4 PUSH1 0x20 SUB PUSH2 0x100 EXP SUB DUP1 NOT DUP3 MLOAD AND DUP2 DUP5 MLOAD AND DUP1 DUP3 OR DUP6 MSTORE POP POP POP POP POP POP SWAP1 POP ADD SWAP2 POP POP PUSH1 0x40 MLOAD PUSH1 0x20 DUP2 DUP4 SUB SUB DUP2 MSTORE SWAP1 PUSH1 0x40 MSTORE DUP1 MLOAD SWAP1 PUSH1 0x20 ADD KECCAK256 SWAP1 POP DUP1 SWAP2 POP POP SWAP2 SWAP1 POP JUMP INVALID MSTORE8 SLOAD COINBASE MSTORE 0x4B 0x4E GASLIMIT SLOAD 0x5F BALANCE 0x2E ADDRESS 0x5F 0x4D MSTORE8 SELFBALANCE 0x49 0x4E SELFBALANCE 0x5F 0x4C BALANCE SLOAD 0x4F 0x4C ORIGIN 0x5F 0x4D COINBASE POP POP POP 0x49 0x4E SELFBALANCE MSTORE8 SLOAD COINBASE MSTORE 0x4B 0x4E GASLIMIT SLOAD 0x5F BALANCE 0x2E ADDRESS 0x5F 0x4D MSTORE8 SELFBALANCE 0x49 0x4E SELFBALANCE 0x5F 0x4C ORIGIN SLOAD 0x4F 0x4C BALANCE 0x5F 0x4D COINBASE POP POP POP 0x49 0x4E SELFBALANCE LOG2 PUSH5 0x6970667358 0x22 SLT KECCAK256 0x2F NOT CODECOPY 0xC4 0xFB 0x22 SDIV 0xD4 MLOAD 0xCD CREATE2 0x5D 0xED 0xD0 0xD6 SWAP3 0xAB 0xBB 0xAD 0xB3 0xF7 PUSH6 0xBB5962C7E04F MSTORE SWAP8 0xE2 0xB4 PUSH5 0x736F6C6343 STOP MOD 0xC STOP CALLER ",
  "sha1": "38417e6940d7e638497154b57e8e6209ddc76fc3",
  "source": "// SPDX-License-Identifier: Apache-2.0.\npragma solidity ^0.6.12;\n\nimport \"./IStarknetMessaging.sol\";\nimport \"contracts/common-contracts/src/libraries/NamedStorage.sol\";\n\n/**\n  Implements sending messages to L2 by adding them to a pipe and consuming messages from L2 by\n  removing them from a different pipe. A deriving contract can handle the former pipe and add items\n  to the latter pipe while interacting with L2.\n*/\ncontract StarknetMessaging is IStarknetMessaging {\n    /**\n      Random slot storage elements and accessors.\n    */\n    string constant L1L2_MESSAGE_MAP_TAG = \"STARKNET_1.0_MSGING_L1TOL2_MAPPPING\";\n    string constant L2L1_MESSAGE_MAP_TAG = \"STARKNET_1.0_MSGING_L2TOL1_MAPPPING\";\n\n    function l1ToL2Messages(bytes32 msgHash) external view returns (uint256) {\n        return l1ToL2Messages()[msgHash];\n    }\n\n    function l2ToL1Messages(bytes32 msgHash) external view returns (uint256) {\n        return l2ToL1Messages()[msgHash];\n    }\n\n    function l1ToL2Messages() internal pure returns (mapping(bytes32 => uint256) storage) {\n        return NamedStorage.bytes32ToUint256Mapping(L1L2_MESSAGE_MAP_TAG);\n    }\n\n    function l2ToL1Messages() internal pure returns (mapping(bytes32 => uint256) storage) {\n        return NamedStorage.bytes32ToUint256Mapping(L2L1_MESSAGE_MAP_TAG);\n    }\n\n    /**\n      Sends a message to an L2 contract.\n    */\n    function sendMessageToL2(\n        uint256 to_address,\n        uint256 selector,\n        uint256[] calldata payload\n    ) external override returns (bytes32) {\n        emit LogMessageToL2(msg.sender, to_address, selector, payload);\n        // Note that the selector (a single integer) is prepended to the payload.\n        bytes32 msgHash = keccak256(\n            abi.encodePacked(uint256(msg.sender), to_address, 1 + payload.length, selector, payload)\n        );\n        l1ToL2Messages()[msgHash] += 1;\n        return msgHash;\n    }\n\n    /**\n      Consumes a message that was sent from an L2 contract.\n\n      Returns the hash of the message.\n    */\n    function consumeMessageFromL2(uint256 from_address, uint256[] calldata payload)\n        external\n        override\n        returns (bytes32)\n    {\n        bytes32 msgHash = keccak256(\n            abi.encodePacked(from_address, uint256(msg.sender), payload.length, payload)\n        );\n\n        require(l2ToL1Messages()[msgHash] > 0, \"INVALID_MESSAGE_TO_CONSUME\");\n        emit ConsumedMessageToL1(from_address, msg.sender, payload);\n        l2ToL1Messages()[msgHash] -= 1;\n        return msgHash;\n    }\n}\n",
  "sourcePath": "contracts/starkware/starknet/eth/StarknetMessaging.sol",
  "type": "contract"
}